:060000000A128A15402CD3
:10000800FB00FA0118287B0884000A128A150020D0
:100018000A128A110A128A1572230A128A110130E9
:10002800F9007908FB0718287B08031D1C282A28D3
:100038007B0884000A128A1500200A128A110038E7
:10004800031D2728282807282A282A280800730893
:10005800720471047004031D3228332835285A2885
:100068005A280130F4000030F5000030F600003066
:10007800F7007408F0027508031C750F442845281A
:10008800F1027608031C760F4A284B28F2027708FB
:10009800031C770F50285128F30273087204710467
:1000A8007004031D5828592835285A280800FD00CF
:1000B8007D0883120313A0002008E90083160313A8
:1000C800AC14F0010314F00D2C08F1002D08F20017
:1000D800F301F40120300A128A15D3260A128A1174
:1000E8007D08A03E84008313000883120313A00038
:1000F800A1010730FF000310A00DA10DFF0B7F2801
:100108007F3083160313300583120313A200F830DF
:1001180083160313310583120313A3002008220456
:1001280083160313B00083120313210823048316D4
:100138000313B100033083120313A0002008F0005A
:10014800831603133008F1003108F200F301F401BB
:1001580020300A128A15D3260A128A117D084C3ECD
:1001680084008313000883120313A000A1010C303C
:10017800FF000310A00DA10DFF0BBD28FF30831653
:100188000313460583120313A2000F3083160313CB
:10019800470583120313A3002008220483160313C0
:1001A800C600831203132108230483160313C70010
:1001B8000E3083120313A0002008F00083160313E7
:1001C8004608F1004708F200F301F40120300A1252
:1001D8008A15D3260A128A11FD3083160313AC053B
:1001E800FF30AD05F0010314F00D2C08F1002D08C7
:1001F800F200F301F40120300A128A15D3260A12FC
:100208008A11080083120313A5010D300A128A15FA
:10021800A5230A128A11831203136908A40024086B
:10022800A6006908303E0A128A1572230A128A113A
:10023800831203136908303E0A128A1504230A122E
:100248008A110030F3000030F2000030F1000A306B
:10025800F0000A128A112B200A128A11A129861984
:10026800362937295E2939293929861D3C293D290E
:1002780039293E290130E90202306902031845296B
:1002880046294A29E9010314E90D4A2969080A128D
:100298008A115B200A128A110030F3000030F20044
:1002A8000030F1006430F0000A128A112B200A1283
:1002B8008A115E29831203130619632964298E297A
:1002C80066296629061D69296A2966296B2901306C
:1002D800A4002408E90709306902031C7429752958
:1002E8007A290930A4002408E9007A2969080A1241
:1002F8008A115B200A128A110030F3000030F200E4
:100308000030F1006430F0000A128A112B200A1222
:100318008A118E2983120313061893299429962982
:10032800B029B02926096905A4002408A50069098F
:100338002605A4002408A504A1298312031325086F
:10034800031DA7293329A82908300A128A1504236E
:100358000A128A11062906290800B23083120313EB
:10036800A9020230031CAA03AA0283160313AC14C1
:10037800F0010314F00D2C08F1002D08F200F30130
:10038800F40120300A128A15D3260A128A11003085
:1003980083160313AE05FC30AF0502308312031336
:1003A800AB002B08F000831603132E08F1002F086A
:1003B800F200F301F40120300A128A15D3260A123A
:1003C8008A11FF3083160313B005BF30B10503301F
:1003D80083120313AB002B08F000831603133008B5
:1003E800F1003108F200F301F40120300A128A15F5
:1003F800D3260A128A1183160313B1160330831207
:100408000313AB002B08F000831603133008F10028
:100418003108F200F301F40120300A128A15D326BC
:100428000A128A1183120313290883160313AE04D0
:10043800831203132A0883160313AF0402308312AE
:100448000313AB002B08F000831603132E08F100EA
:100458002F08F200F301F40120300A128A15D3267E
:100468000A128A1183160313AF140230831203137E
:10047800AB002B08F000831603132E08F1002F0899
:10048800F200F301F40120300A128A15D3260A1269
:100498008A11742A133083120313AB002B08F0005F
:1004A80020300A128A11EE230A128A117108831267
:1004B8000313E601E6077008E501E5072030E505C6
:1004C8000030E6050030F3000030F2000030F100A3
:1004D8000A30F0000A128A112B200A128A11742A93
:1004E800831203136608650403197B2A7C2A4E2AA3
:1004F8007D2AFD3083160313AC05FF30AD05F001EE
:100508000314F00D2C08F1002D08F200F301F4019A
:1005180020300A128A15D3260A128A111330831240
:100528000313AB002B08F00020300A128A11EE23C7
:100538000A128A11700883120313AC007108AD0007
:1005480007300310AD0CAC0CFF3E031DA52AFF308D
:100558002C05DD0001302D05DE00DF01E001B230A1
:10056800DD07023003180330DE07003003180130BE
:10057800DF07003003180130E00708000030F300FF
:100588000030F2001330F1008830F0000A128A11AE
:100598002B200A128A11FF308316031385000F30AF
:1005A80086008801831203138501860188010130C2
:1005B8000A128A1559230A128A1102300A128A1558
:1005C80059230A128A1106300A128A1559230A1267
:1005D8008A110C300A128A1559230A128A113830E6
:1005E8000A128A1559230A128A110A128A154423F3
:1005F8000A128A110A128A1510230A128A110A127B
:100608008A155A270A128A115E300A128A110420A2
:100618000A128A1114300A128A15A5230A128A119D
:1006280008300A128A1104200A128A1101300A12AB
:100638008A156C240A128A1108300A128A115B2062
:100648000A128A110030F3000230F2004930F1003A
:10065800F030F0000A128A112B200A128A110A12AD
:100668008A158B230A128A1127300A128A1104204C
:100678000A128A1127300A128A156C240A128A1162
:1006880014300A128A15A5230A128A1138300A1260
:100698008A1104200A128A1138300A128A156C2429
:1006A8000A128A1183120313E7010314E70D0730B6
:1006B8006702031C602B612B632BA82BA82B6708F0
:1006C8000A128A15E0230A128A1183120313C8003A
:1006D800C901CA01CB014B08E4004A08E3004908F4
:1006E800E2004808E10000306406031D852B003055
:1006F8006306031D852B00306206031D852BFF3022
:100708006106031D882B892B9B2B6708563E8400A6
:1007180083130008C800C9014808F0004908F1001F
:1007280067080A128A15C2230A128A119B2B013004
:1007380083120313C8004808E70707306702031C41
:10074800A62BA72B632BA82B831203130618AD2BFC
:10075800AE2BC02BB02BB02B061CB32BB42BB02B5D
:10076800B52B0A128A1523250A128A110A128A1130
:100778001E250A128A11C02B831203138618C52B53
:10078800C62BA82BC82BC82B861CCB2BCC2BC82B35
:10079800CD2B00300A128A15A5230A128A111630A9
:1007A8000A128A1104200A128A1116300A128A15AE
:1007B8006C240A128A11013083120313E8020A1208
:1007C8008A1106210A128A11A82BA82BA82B0A1213
:1007D8008A11002883120313A400A201A301A00117
:1007E800A101831603131114F92B1118FC2BFD2BEF
:1007F800F92BFE2B8312031324089300032C831672
:1008080003131419082C092C032C111F0C2C0D2C64
:10081800182C11150F2C1119122C132C0F2C142C09
:10082800F001F1011D2D1D2D700883120313930093
:100838001D2C831603131419222C232C1D2C111F75
:10084800262C272C322C1115292C11192C2C2D2C47
:10085800292C2E2CF001F1011D2D1D2D9114342C65
:100868009118372C382C342C392C83120313240874
:10087800013893003F2C831603131419442C452C7C
:100888003F2C111F482C492C542C11154B2C111995
:100898004E2C4F2C4B2C502CF001F1011D2D1D2DF1
:1008A8009115003083120313A8000030A7002730E9
:1008B800A6001030A500922C0130F2000030F300A1
:1008C8000030F4000030F50072088312A5027308A6
:1008D800031C730F702C712CA6027408031C740F70
:1008E800762C772CA7027508031C750F7C2C7D2CA1
:1008F800A8022808270426042504031D842C852C17
:10090800922C831603131115892C11198C2C8D2CFC
:10091800892C8E2CF001F1011D2D1D2D831603133A
:10092800141C972C982C602C992C831203131308F1
:10093800F2007208A2008316031391121116A42C58
:10094800111AA72CA82CA42C91150030831203137C
:10095800A8000030A7002730A6001030A500E62C1C
:100968000130F2000030F3000030F4000030F500F0
:1009780072088312A5027308031C730FC42CC52CBC
:10098800A6027408031C740FCA2CCB2CA702750886
:10099800031C750FD02CD12CA80228082704260484
:1009A8002504031DD82CD92CE62C83160313111506
:1009B800DD2C1119E02CE12CDD2CE22CF001F101E9
:1009C8001D2D1D2D83160313141CEB2CEC2CB42C9D
:1009D800ED2C831203131308F2007208A300831688
:1009E800031391161116F82C111AFB2CFC2CF82C59
:1009F8001115FE2C1119012D022DFE2C032D831229
:100A080003132208F200F3017208F300F2017208DE
:100A1800A0007308A1002308F200F3017208A004E3
:100A28007308A1042108F101F1072008F001F0077B
:100A38001D2D0800831203138619232D242D642DE0
:100A4800C201C3014A2D0130C2070318C30A00308E
:100A5800C307023043028A3003194202031C352DB2
:100A6800362D3C2D0A128A155D260A128A113C2D54
:100A78000030F3000030F2000030F1006430F00084
:100A88000A128A112B200A128A114A2D8312031383
:100A9800861D4F2D502D272D512D0A128A155D26A2
:100AA8000A128A110030F3000030F2000330F1001E
:100AB800E830F0000A128A112B200A128A11642DDC
:100AC800831203130619692D6A2DAA2DC401C501C5
:100AD800902D0130C4070318C50A0030C50702303D
:100AE80045028A3003194402031C7B2D7C2D822D7C
:100AF8000A128A1587250A128A11822D0030F300FE
:100B08000030F2000030F1006430F0000A128A115F
:100B18002B200A128A11902D83120313061D952D7E
:100B2800962D6D2D972D0A128A1587250A128A117E
:100B38000030F3000030F2000330F100E830F0003C
:100B48000A128A112B200A128A11AA2D8312031362
:100B58000618AF2DB02D3F2EC601C701322E013029
:100B6800C6070318C70A0030C70705304702143004
:100B780003194602031CC12DC22D242E5E08F10163
:100B8800F1075D08F001F00768080A128A15C22308
:100B98000A128A110A128A158B230A128A114D30F9
:100BA8000A128A1104200A128A114D300A128A1573
:100BB8006C240A128A11831203136808303E0A1241
:100BC8008A1572230A128A11831203136808303EA9
:100BD8000A128A1504230A128A1156300A128A1137
:100BE80004200A128A1156300A128A156C240A1235
:100BF8008A11831203136008A3005F08A2005E082D
:100C0800A1005D08A0000A128A116B260A128A1137
:100C18000D2E83120313061C122E132E0D2E142EC6
:100C28000130E8020030F3000030F2000730F10034
:100C3800D030F0000A128A112B200A128A11242EB1
:100C48000030F3000030F2000030F1006430F000B2
:100C58000A128A112B200A128A11322E83120313C8
:100C6800061C372E382EB32D392E0A128A15232545
:100C78000A128A113F2E831203138618442E452E1A
:100C88001E2D472E472E861C4A2E4B2E472E4C2EA5
:100C980000300A128A15A5230A128A1116300A1280
:100CA8008A1104200A128A1116300A128A156C2435
:100CB8000A128A11013083120313E8020A128A11F8
:100CC80006210A128A111E2D1E2D1E2D08003030F5
:100CD80083120313A4000030A5000030A6000030E2
:100CE800A7000030F3000030F2000330F100E830D4
:100CF800F0002308F7002208F6002108F500200874
:100D0800F4000A128A15EF250A128A117008831254
:100D18000313A40771080318710F932E942EA507C7
:100D280072080318720F992E9A2EA60773080318D3
:100D3800730AA7072708AB002608AA002508A900F8
:100D48002408A8000030F3000030F2000330F1005E
:100D5800E830F0002308F7002208F6002108F50023
:100D68002008F4000A128A15C7240A128A11730887
:100D780083120313A3007208A2007108A10070086F
:100D8800A0003030A4000030A5000030A6000030DC
:100D9800A7000030F3000030F2000030F1006430AA
:100DA800F0002308F7002208F6002108F5002008C3
:100DB800F4000A128A15EF250A128A1170088312A4
:100DC8000313A40771080318710FEB2EEC2EA50767
:100DD80072080318720FF12EF22EA6077308031873
:100DE800730AA7072708AF002608AE002508AD003C
:100DF8002408AC000030F3000030F2000030F100AD
:100E08006430F0002308F7002208F6002108F500F6
:100E18002008F4000A128A15C7240A128A117308D6
:100E280083120313A3007208A2007108A1007008BE
:100E3800A0003030A4000030A5000030A60000302B
:100E4800A7000030F3000030F2000030F1000A3053
:100E5800F0002308F7002208F6002108F500200812
:100E6800F4000A128A15EF250A128A1170088312F3
:100E78000313A40771080318710F432F442FA50704
:100E880072080318720F492F4A2FA6077308031810
:100E9800730AA7072708B3002608B2002508B1007F
:100EA8002408B0000030B7000030B6000030B500AC
:100EB8002E30B4003030A4000030A5000030A60069
:100EC8000030A7000030F3000030F2000030F100DD
:100ED8000A30F0002308F7002208F6002108F50080
:100EE8002008F4000A128A15C7240A128A11700809
:100EF80083120313A40771080318710F842F852F19
:100F0800A50772080318720F8A2F8B2FA60773087C
:100F18000318730AA7072708BB002608BA00250884
:100F2800B9002408B80014300A128A15A5230A1239
:100F38008A1165300A128A1104200A128A11653052
:100F48000A128A156C240A128A1183120313BC012F
:100F5800BD0100303D02053003193C02031CB52FCA
:100F6800B62FB82FF22FF22F3C08A400013003103F
:100F7800A40DFF3E031DBB2F0310240D283E840043
:100F8800831300080A128A1572230A128A1183121F
:100F980003133C08A40001300310A40DFF3E031DF9
:100FA800D02F0310240D283E8400831300080A1252
:100FB8008A1504230A128A11013083120313BC070D
:100FC8000318BD0A0030BD0700303D020530031983
:100FD8003C02031CF02FF12FB82FF22F0030F30042
:100FE8000030F2000330F100E830F0000A128A11F4
:100FF8002B200A128A11080008308A000408840A83
:1010080082070034503452343334313420343D3480
:1010180020344434693467346934743461346C344A
:10102800203452346134643469346F340034763493
:101038006F346C3475346D34653420346C346534F5
:10104800763465346C343D34203420342034003414
:101058007334773431343D346334683461346E34F6
:1010680020347334773432343D3476346F346C340E
:1010780000347334773431342834313473342934B8
:101088003D34733465347434003443346834613423
:101098006E346E3465346C34203400346334683410
:1010A80061346E346E3465346C342034003420344A
:1010B80073346534743474346534643400345034AF
:1010C80052343334313420343A34003446344D34D5
:0410D8003D3400346F
:10160800F000062B831203130C1E0B2B0C2B062B3E
:101618000D2B700899000800831603138715071609
:101628000C309300831203139415141194101410A2
:10163800941314139416080000340F340D340E3428
:101648000F340E340F340F340F340F3438348434DD
:10165800B234C834EE34153435347E088A007F0835
:1016680082000A128A1531230A128A158000840A18
:1016780004087D0603190034FF0A0319FE0A352BF6
:1016880083160313181581309900831203139817D2
:101698001816831603139816071387170C300A12A7
:1016A8008A1504230A128A150800F8008312031306
:1016B8000612780888000030F3000030F20001308C
:1016C800F1002C30F0000A128A112B200A128A1518
:1016D8000A128A151F240A128A150800F8008312B4
:1016E80003130616780888000030F3000030F20073
:1016F8000130F1002C30F0000A128A112B200A1256
:101708008A150A128A151F240A128A150800013040
:101718000A128A1559230A128A1502300A128A15E2
:1017280059230A128A150030F3000030F200013004
:10173800F1005E30F0000A128A112B200A128A1575
:101748000800FA0010307A020318AB2BAC2BB42B2C
:101758007A08803E0A128A1559230A128A15C12B63
:101768007A08EC3EF9007908FA007A08C03E0A12B5
:101778008A1559230A128A15C12B0800F20072082B
:10178800831203178D003930F0020330031CF10374
:10179800F10270088C00831603178C130C15553052
:1017A8008D00AA308D008C140C11DA2B8C18DD2BCF
:1017B800DE2BDA2BDF2B0800F100640083160317F9
:1017C8008C18E72BE82BE12BE92B71088312031700
:1017D8008D003F30F0007008831603178C050C1439
:1017E80003100C1803140030031801308312031778
:1017F8000C08FE2B0800F4007408831203178D00F0
:10180800831603178C130C14092C0C180C2C0D2C94
:10181800092C0E2C831203170C08393EF2000330F2
:1018280003180430F3007308F101F1077208F0019E
:10183800F0071E2C08008312031386160030F300ED
:101848000030F2000130F1002C30F0000A128A1149
:101858002B200A128A158312031386120030F30014
:101868000030F2000130F1002C30F0000A128A1129
:101878002B200A128A150800DD01DE01DF01E001D4
:10188800E101E201E301E401E501E601E701E80124
:10189800E9018313CE30FD000C30FE009930FF00C3
:1018A800A03084000A128A1535230A128A155D3081
:1018B800FD000B30FE002030FF004C3084000A127F
:1018C8008A1535230A128A1583010A128A11C22A37
:1018D800F2000A300A128A1504230A128A150D30FA
:1018E8000A128A1504230A128A158B2C720884009E
:1018F8000A128A1500200A128A150A128A15042368
:101908000A128A150130F1007108F2078B2C72084F
:1019180084000A128A1500200A128A150038031D4D
:10192800962C972C7A2C982C08000034073406340F
:101938000634063403340334023401340034FF34EB
:10194800FF3415345B34B934F43412348034003441
:101958000434AA34283400344434E7341E3441347F
:1019680071347D340034C634823455344F340C34E9
:1019780097344534B8342D34FC3497348034A1344A
:1019880004346A34DF347308720471047004031970
:10199800CE2CCF2C192DF9010314F90DE12C0130AF
:1019A800F8000310F00DF10DF20DF30DF80BD52C26
:1019B8000130F8007808F907E12CF31FE42CE52C36
:1019C800D32CE72CE72C73087702031DF52C72083B
:1019D8007602031DF52C71087502031DF52C70089D
:1019E8007402031CF82CF92C082D7008F4027108F5
:1019F800031C710FF5027208031C720FF6027308BC
:101A0800031C730FF702082D01300310F30CF20CBE
:101A1800F10CF00CFF3E031D092D0130F902031DE6
:101A2800162D172DE72C192D192D7708F300760898
:101A3800F2007508F1007408F000222D080001304A
:101A480083120313BE003E08E80707306802031C30
:101A58002E2D2F2D332DE8010314E80D332D0A12F6
:101A68008A158B230A128A154D300A128A1104200E
:101A78000A128A150C300A128A1504230A128A15CA
:101A880044300A128A156C240A128A158312031329
:101A98006808303E0A128A1572230A128A158312C0
:101AA80003136808303E0A128A1504230A128A159D
:101AB8008312031368080A128A15FF230A128A156B
:101AC800700883120313DD007108DE00DF01E001F6
:101AD8005E08AA01AA075D08A901A9070A128A11C6
:101AE800B1210A128A15831203136008A3005F0844
:101AF800A2005E08A1005D08A0000A128A116B26E8
:101B08000A128A150800013083120313DD0700301A
:101B180003180130DE07003003180130DF070030FA
:101B280003180130E00700306002031DA52D0030C6
:101B38005F02031DA52D04305E02031DA52D38305C
:101B48005D02031CA82DA92DB22D0030E000003045
:101B5800DF000330DE006B30DD00B22D5E08AA0125
:101B6800AA075D08A901A9070A128A11B1210A1258
:101B78008A150C300A128A1504230A128A154D3068
:101B88000A128A156C240A128A158312031368082C
:101B9800303E0A128A1504230A128A158312031387
:101BA8006008A3005F08A2005E08A1005D08A0000D
:101BB8000A128A116B260A128A150030F3000030C7
:101BC800F2000530F100DC30F0000A128A112B20F7
:101BD8000A128A1508000030FC000030FB000030B3
:101BE800FA000030F90073087204710470040319D4
:101BF800FE2DFF2D532EFD010314FD0D112E013076
:101C0800F8000310F00DF10DF20DF30DF80B052E91
:101C18000130F8007808FD07112EF31F142E152E39
:101C2800032E172E172E0130F8000310F90DFA0DA8
:101C3800FB0DFC0DF80B192E73087702031D2E2ED1
:101C480072087602031D2E2E71087502031D2E2EB2
:101C580070087402031C312E322E422E7008F402D2
:101C68007108031C710FF5027208031C720FF6024B
:101C78007308031C730FF7027914422E0130031006
:101C8800F30CF20CF10CF00CFF3E031D432E013057
:101C9800FD02031D502E512E172E532E532E7C0855
:101CA800F3007B08F2007A08F1007908F0005C2E56
:101CB8000800013083120313BE000030BF0000305B
:101CC800C0000030C1003E08DD023F08031C3F0F82
:101CD8006E2E6F2EDE024008031C400F742E752EE8
:101CE800DF024108031C410F7A2E7B2EE0020030F0
:101CF8006002031D892E00305F02031D892E033008
:101D08005E02031D892E6C305D0203188C2E8D2E09
:101D1800962E0030E0000030DF000430DE0038305E
:101D2800DD00962E5E08AA01AA075D08A901A90789
:101D38000A128A11B1210A128A150C300A128A1560
:101D480004230A128A154D300A128A156C240A12C5
:101D58008A15831203136808303E0A128A15042371
:101D68000A128A15831203136008A3005F08A200F1
:101D78005E08A1005D08A0000A128A116B260A12EB
:101D88008A150030F3000030F2000530F100DC3035
:101D9800F0000A128A112B200A128A150800FA008C
:101DA8007108F5007208F6007308F7007408F80067
:101DB80008300310F80CF70CF60CF50CFF3E031D69
:101DC800DD2E7508F9007908FB007108F500750823
:101DD800FC00831603131114F12E1118F42EF52E9E
:101DE800F12EF62E7A08831203139300FB2E831626
:101DF80003131419002F012FFB2E111F042F052F79
:101E08000D2F1115072F11190A2F0B2F072F592FD7
:101E1800592F7008831203139300122F831603138C
:101E28001419172F182F122F111F1B2F1C2F242F97
:101E380011151E2F1119212F222F1E2F592F592FFF
:101E48007B08831203139300292F83160313141995
:101E58002E2F2F2F292F111F322F332F3B2F1115E4
:101E6800352F1119382F392F352F592F592F7C0815
:101E7800831203139300402F831603131419452F5D
:101E8800462F402F111F492F4A2F522F11154C2F23
:101E980011194F2F502F4C2F592F592F1115542FDF
:101EA8001119572F582F542F592F08000030F300BD
:101EB8000030F2000030F1006430F0000A128A119C
:101EC8002B200A128A15F001FE30831603132A0507
:101ED800F100FF302B05F200F301F40120300A1263
:101EE8008A15D3260A128A15013083120313AD000E
:101EF8000030AE002E08803AFF0080307F02031DBC
:101F0800872F12302D02031C8A2F8B2F8D2FC02F65
:101F1800C02F831203132D08A9002908F0002D08EB
:101F2800AA002A07AA3E840083130008AB00840A8B
:101F38000008AC002B08F1002C08F200F301F401B2
:101F480020300A128A15D3260A128A150130831204
:101F58000313AD070318AE0A0030AE072E08803A07
:101F6800FF0080307F02031DBB2F12302D02031C9F
:101F7800BE2FBF2F8D2FC02FF001831603132A0801
:101F8800F1002B08F200F301F40120300A128A153F
:101F9800D3260A128A15F62F133083120313A900C9
:101FA8002908F00020300A128A11EE230A128A1535
:101FB800710883120313E601E6077008E501E507D7
:101FC8002030E5050030E6050030F3000030F2006F
:101FD8000030F1000A30F0000A128A112B200A1290
:101FE8008A15F62F83120313660865040319FD2F5B
:081FF800FE2FD02FFF2F08007F
:02400E00323F3F
:00000001FF
