:10000000B13084000730FE007730FF0011208000FF
:10001000840A0408F03A03191528FF0A0319FE0A96
:1000200006287E088A007F088200831771308400CA
:100030007E300A128A1122200A128A1183010A12C2
:100040008A112A2864008001840A040603190034F6
:10005000040623280030D3000030D2001330D10032
:100060008830D0000A128A15C6230A128A11831614
:100070000313FF3085000F30860003100030031893
:10008000013088000310831203130030031801307D
:100090008500031000300318013086000310003083
:1000A00003180130880001300A128A11E6270A126B
:1000B0008A1102300A128A11E6270A128A110630C2
:1000C0000A128A11E6270A128A110C300A128A11C2
:1000D000E6270A128A1138300A128A11E6270A1214
:1000E0008A110A128A15A7220A128A110A128A157F
:1000F00097220A128A110A128A15FE250A128A11FB
:100100005E300A128A159B230A128A1114300A12D1
:100110008A15F0220A128A1108300A128A159B23C6
:100120000A128A1101300A128A11B6270A128A119C
:1001300008300A128A1548270A128A1183120313FB
:100140000030D3000230D2004930D100F030D0006E
:100150000A128A15C6230A128A110A128A15D42293
:100160000A128A1127300A128A159B230A128A1151
:1001700027300A128A11B6270A128A1114300A127D
:100180008A15F0220A128A1138300A128A159B2326
:100190000A128A1138300A128A11B6270A128A11F5
:1001A00083120313FD010314FD0DD6287D080A12E6
:1001B0008A1551230A128A1183120313A000A10188
:1001C000A201A3012308F6002208F5002108F4008B
:1001D0002008F30000307606031DF828003075066D
:1001E000031DF82800307406031DF828FF3073063D
:1001F000031DFB28FC280D297D08E93E840083139C
:100200000008A000A1012008AA002108AB007D0879
:100210000A128A152F230A128A110130831203133E
:10022000A0002008FD0707307D02031C18291929AA
:10023000D6288312031306181E291F292E292029C8
:10024000061C2329242920290A128A1542240A126D
:100250008A110A128A1136240A128A118312031390
:1002600086183329342954293529861C38293929F7
:10027000352900300A128A15F0220A128A11163026
:100280000A128A159B230A128A1116300A128A1141
:10029000B6270A128A11831203130130FC020A12D4
:1002A0008A15A2260A128A1119290A128A1100280F
:1002C6000130AA000030AB000030AC000030AD00B9
:1002D6002A08F7022B08031C2B0F72297329F80230
:1002E6002C08031C2C0F78297929F9022D08031CE8
:1002F6002D0F7E297F29FA0200307A02031D8D29EF
:1003060000307902031D8D2903307802031D8D29E3
:100316006C30770203189029912999290030FA0048
:100326000030F9000430F8003830F7007708AE01E5
:10033600AE077808AF01AF070A128A11D8210A1250
:100346008A110C300A128A1589220A128A1144303F
:100356000A128A11B6270A128A11831203137C081D
:10036600303E0A128A1589220A128A118312031351
:100376007A08B1007908B0007808AF007708AE00B7
:100386000A128A1185250A128A1183120313003074
:10039600D3000030D2000530D100DC30D0000A1284
:1003A6008A15C6230A128A110800B230AE0202303C
:1003B600031CAF03AF0283160313B314330883126F
:1003C6000313B30083160313340883120313B40014
:1003D600B501B601B2010314B20D20300A128A1516
:1003E60078250A128A11831603130030B505FC30EE
:1003F600B605350883120313B300831603133608B4
:1004060083120313B400B501B6010230B2002030E6
:100416000A128A1578250A128A1183160313FF30E9
:10042600B705BF30B805370883120313B300831628
:100436000313380883120313B400B501B601033061
:10044600B20020300A128A1578250A128A118316FC
:100456000313B816370883120313B3008316031366
:10046600380883120313B400B501B6010330B20095
:1004760020300A128A1578250A128A11831203136C
:1004860083160313831203132E0883160313B5046E
:10049600831203132F0883160313B6043508831239
:1004A6000313B30083160313360883120313B40031
:1004B600B501B6010230B20020300A128A1578253D
:1004C6000A128A1183160313B6143508831203130E
:1004D600B30083160313360883120313B400B50161
:1004E600B6010230B20020300A128A1578250A12A7
:1004F6008A119E2A1330B20020300A128A11F52280
:100506000A128A11831203133208F101F107330824
:10051600F201F2072030F1050030F2050030D30079
:100526000030D2000030D1000A30D0000A128A15FD
:10053600C6230A128A11831203137208710403195F
:10054600A52AA62A7D2A83160313FD30B305FF309C
:10055600B405330883120313B30083160313340858
:1005660083120313B400B501B601B2010314B20D30
:1005760020300A128A1578250A128A11133083123E
:100586000313B20020300A128A11F5220A128A11C8
:100596008030831203133205B000FF303305B100FB
:1005A60007300310B10CB00CFF3E031DD42A3008EF
:1005B600F7003108F800F901FA01B230F707023006
:1005C60003110318013E031DF80700300311031839
:1005D600013E031DF907003003110318013E031DF8
:1005E600FA070800B4000310003003180130B60003
:1005F6000310003003180130B5000030B70000309A
:10060600B800831603131114082B11180B2B0C2B8F
:10061600082B83120313340883139300122B8316BB
:1006260003131419172B182B122B111F1B2B1C2B02
:10063600292B11151E2B1119212B222B1E2B0030B5
:1006460083120313B2000030B300352C8312031358
:10065600320893002E2B831603131419332B342BD5
:100666002E2B111F372B382B452B11153A2B111911
:100676003D2B3E2B3A2B003083120313B200003081
:10068600B300352C9114472B91184A2B4B2B472B33
:1006960083120313340801389300512B8316031376
:1006A6001419562B572B512B111F5A2B5B2B682BCA
:1006B60011155D2B1119602B612B5D2B00308312F8
:1006C6000313B2000030B300352C911583120313C7
:1006D6000030BC000030BB002730BA001030B90033
:1006E600A92B013083120313BD000030BE00003079
:1006F600BF000030C0003D08B9023E08031C3E0F93
:10070600852B862BBA023F08031C3F0F8B2B8C2BA5
:10071600BB024008031C400F912B922BBC023C08E5
:100726003B043A043904031D992B9A2BA92B8316F3
:10073600031311159E2B1119A12BA22B9E2B0030F2
:1007460083120313B2000030B300352C8316031353
:10075600141CAE2BAF2B742B831203131308B60095
:100766008316031391121116B82B111ABB2BBC2B2F
:10077600B82B9115831203130030BC000030BB0068
:100786002730BA001030B900FD2B01308312031355
:10079600BD000030BE000030BF000030C0003D0884
:1007A600B9023E08031C3E0FD92BDA2BBA023F08CA
:1007B600031C3F0FDF2BE02BBB024008031C400F3E
:1007C600E52BE62BBC023C083B043A043904031D26
:1007D600ED2BEE2BFD2B831603131115F22B11199E
:1007E600F52BF62BF22B003083120313B2000030E8
:1007F600B300352C83160313141C022C032CC82BB0
:10080600831203131308B5008316031391161116EA
:100816000C2C111A0F2C102C0C2C1115122C111932
:10082600152C162C122C8312031336088313BD00C5
:10083600BE01083084000310BD0DBE0D840B1E2CB6
:100846003D08B7003E08B8003508BD00BE013D08AA
:10085600B7043E08B8043708B201B2073808B30136
:10086600B307352C08008312031386193B2C3C2C46
:100876007F2C0030A4000030A500652C0130A407B1
:100886000318A50A0030A50702302502031D4D2CCA
:100896008A302402031C502C512C562C0A128A1121
:1008A60063210A128A11831203130030D300003029
:1008B600D2000030D1006430D0000A128A15C62357
:1008C6000A128A1183120313861D6A2C6B2C412C83
:1008D6000A128A1163210A128A1183120313003045
:1008E600D3000030D2000330D100E830D0000A1225
:1008F6008A15C6230A128A11831203130619842C39
:10090600852CC82C0030A6000030A700AE2C013084
:10091600A6070318A70A0030A70702302702031DFF
:10092600962C8A302602031C992C9A2C9F2C0A128C
:100936008A150B250A128A11831203130030D3007D
:100946000030D2000030D1006430D0000A128A157F
:10095600C6230A128A1183120313061DB32CB42C64
:100966008A2C0A128A150B250A128A11831203137E
:100976000030D3000030D2000330D100E830D00080
:100986000A128A15C6230A128A118312031306183D
:10099600CD2CCE2C5D2D0030A8000030A900522DA4
:1009A6000130A8070318A90A0030A9070530290253
:1009B600031DDF2C14302802031CE22CE32C432DEC
:1009C6007708AA01AA077808AB01AB077C080A12C8
:1009D6008A152F230A128A110A128A15D4220A129C
:1009E6008A1144300A128A159B230A128A1144304E
:1009F6000A128A11B6270A128A11831203137C0877
:100A0600303E0A128A15BC220A128A118312031377
:100A16007C08303E0A128A1589220A128A1156303B
:100A26000A128A159B230A128A1156300A128A1153
:100A3600B6270A128A11831203137A08B1007908BD
:100A4600B0007808AF007708AE000A128A11852533
:100A56000A128A112E2D83120313061C332D342DF0
:100A66002E2D0130FC020030D3000030D2000730BA
:100A7600D100D030D0000A128A15C6230A128A1174
:100A8600831203130030D3000030D2000030D100AF
:100A96006430D0000A128A15C6230A128A118312FC
:100AA6000313061C572D582DD32C0A128A154224DF
:100AB6000A128A11831203138618622D632D832D61
:100AC600642D861C672D682D642D00300A128A1548
:100AD600F0220A128A1116300A128A159B230A126C
:100AE6008A1116300A128A11B6270A128A1183123F
:100AF60003130130FC020A128A15A2260A128A1171
:100B0600362C08003030C8000030C9000030CA005A
:100B16000030CB000030D3000030D2000330D100CB
:100B2600E830D0003108CF003008CE002F08CD00C5
:100B36002E08CC000A128A15A3240A128A118312DF
:100B460003134C08C8074D0803184D0FC9074E0874
:100B560003184E0FCA074F0803184F0ACB074B0856
:100B6600B7004A08B6004908B5004808B400003086
:100B7600D3000030D2000330D100E830D000310875
:100B8600CF003008CE002F08CD002E08CC000A1268
:100B96008A15F4230A128A11831203134F08B1002F
:100BA6004E08B0004D08AF004C08AE003030C8000B
:100BB6000030C9000030CA000030CB000030D3003E
:100BC6000030D2000030D1006430D0003108CF00B0
:100BD6003008CE002F08CD002E08CC000A128A1548
:100BE600A3240A128A11831203134C08C8074D085E
:100BF60003184D0FC9074E0803184E0FCA074F08B2
:100C060003184F0ACB074B08BB004A08BA0049082D
:100C1600B9004808B8000030D3000030D2000030D8
:100C2600D1006430D0003108CF003008CE002F0844
:100C3600CD002E08CC000A128A15F4230A128A1156
:100C4600831203134F08B1004E08B0004D08AF00E1
:100C56004C08AE003030C8000030C9000030CA0071
:100C66000030CB000030D3000030D2000030D1007D
:100C76000A30D0003108CF003008CE002F08CD0052
:100C86002E08CC000A128A15A3240A128A1183128E
:100C960003134C08C8074D0803184D0FC9074E0823
:100CA60003184E0FCA074F0803184F0ACB074B0805
:100CB600BF004A08BE004908BD004808BC00003015
:100CC600C3000030C2000030C1002E30C0003030FA
:100CD600C8000030C9000030CA000030CB00003028
:100CE600D3000030D2000030D1000A30D0003108E5
:100CF600CF003008CE002F08CD002E08CC000A12F7
:100D06008A15F4230A128A11831203134C08C807A2
:100D16004D0803184D0FC9074E0803184E0FCA0792
:100D26004F0803184F0ACB074B08C7004A08C600EE
:100D36004908C5004808C40014300A128A15F02272
:100D46000A128A1165300A128A159B230A128A1121
:100D560065300A128A11B6270A128A1100308312E8
:100D66000313B2000030B300B82E32088313C80054
:100D760001300310C80DFF3E031DBC2E0310480DA5
:100D8600343E840000080A128A15BC220A128A110F
:100D96008312031332088313C80001300310C80DF1
:100DA600FF3E031DD12E0310480D343E840000087B
:100DB6000A128A1589220A128A1183120313013034
:100DC600B2070318B30A0030B30700303302031D1D
:100DD600EE2E05303202031CF12EF22EB82E003014
:100DE600D3000030D2000330D100E830D0000A1220
:100DF6008A15C6230A128A110800FE00FE1F082F54
:100E060083137E188317000808000408FE000730C5
:100E16008A007E0882070034503452343334313429
:100E260020343D34203444346934673469347434AE
:100E360061346C34203452346134643469346F3430
:100E4600003476346F346C3475346D346534203444
:100E56006C346534763465346C343D342034203457
:100E6600203400347334773431343D346334683499
:100E760061346E3420347334773432343D3476340E
:100E86006F346C340034733477343134283431346D
:100E9600733429343D347334653474340034633424
:100EA600683461346E346E3465346C342034003406
:100EB6004334683461346E346E3465346C342034B3
:100EC60000342034733465347434743465346434D3
:100ED6000034503452343334313420343A3400340C
:100EE60046344D343D340034FF34FF3415345B341E
:100EF600B934F4341234803400340434AA34283437
:100F060000344434E7341E34413471347D340034C3
:100F1600C634823455344F340C3497344534B8349F
:100F26002D34FC3497348034A13404346A34DF34ED
:100F360000340734063406340634033403340234EA
:100F46000134003400340F340D340E340F340E34B3
:100F56000F340F340F340F3438348434B234C83479
:100F6600EE341534353483120313CC000A300A12DA
:100F76008A1589220A128A110D300A128A158922C7
:100F86000A128A11D72F4C080A128A1109270A1247
:100F96008A110A128A1589220A128A1101308312CD
:100FA6000313CD004D08CC07831203134C0883139B
:100FB6000A128A1109270A128A110038031DE42F22
:100FC600E52FC62F080083120313CD0006124D0825
:100FD600831388000030D3000030D2000130D100E6
:100FE6002C30D0000A128A15C6230A128A110A1258
:0A0FF6008A150E230A128A11080062
:1015120083120313CE008D2A831203130C1E922A08
:10152200932A8D2A4E088313990008008316031309
:10153200871507160C3093008312031394151411A8
:1015420094101410941314139416080083160313A2
:1015520018158130990083120313981718168316F1
:1015620003139816071387170C300A128A1589225B
:101572000A128A150800CF0006164F088313880046
:101582000030D3000030D2000130D1002C30D00026
:101592000A128A15C6230A128A150A128A150E23FE
:1015A2000A128A15080001300A128A11E6270A1265
:1015B2008A1502300A128A11E6270A128A15831244
:1015C20003130030D3000030D2000130D1005E306E
:1015D200D0000A128A15C6230A128A15080083123D
:1015E2000313CC0010304C020318F82AF92A022BFC
:1015F2004C088313803E0A128A11E6270A128A15C2
:101602000D2B4C088313EC3ECC004C08C03E0A1252
:101612008A11E6270A128A15080083120313861616
:101622000030D3000030D2000130D1002C30D00085
:101632000A128A15C6230A128A1583120313861206
:101642000030D3000030D2000130D1002C30D00065
:101652000A128A15C6230A128A150800AC002C0841
:101662008313831203178D00831203133930AA02E6
:101672000330031CAB03AB022A08831203178C004E
:10168200831603178C130C1555308D00AA308D006C
:101692008C140C114C2B8C184F2B502B4C2B0800FC
:1016A200A400542B542B831603178C18592B5A2B36
:1016B200532B8312031324088313831203178D0001
:1016C2007F3083120313A5008316031783120313BB
:1016D2002508831603178C050C14831203170C08B4
:1016E200722B0800AD002D088313831203178D009F
:1016F200831603178C130C147E2B0C18812B822B50
:101702007E2B393083120313B0000330B1008312F1
:1017120003170C08831203133007AE0031080318B5
:10172200310AAF002E08AB01AB072F08AC01AC07A2
:101732009A2B080083120313CD0003100030031804
:101742000130CC00B52B4D080A128A1109270A1262
:101752008A150A128A15BC220A128A1501308312CE
:101762000313CE004E08CD07CD08031DB92BC52BA0
:101772004D0883130A128A1109270A128A150038A2
:10178200031DC42BC52BA42B08005308520451047B
:101792005004031DCD2BCE2BCF2BF32B0130D400C5
:1017A2000030D5000030D6000030D7005408D002F7
:1017B2005508031C550FDE2BDF2BD1025608031CE4
:1017C200560FE42BE52BD2025708031C570FEA2BC6
:1017D200EB2BD3025308520451045004031DF22B85
:1017E200F32BCF2B08005308520451045004031961
:1017F200FB2BFC2B402CD4010314D40D0D2C0130F7
:10180200D5000310D00DD10DD20DD30DD50B022C66
:101812000130D5005508D407D31F102C112C002CF1
:1018220053084F02031D1F2C52084E02031D1F2C8A
:1018320051084D02031D1F2C50084C02031C222C80
:10184200232C312C5008CC025108031C510FCD021D
:101852005208031C520FCE025308031C530FCF022F
:1018620001300310D30CD20CD10CD00CFF3E031D5F
:10187200322C0130D402031D3F2C402C112C412C60
:1018820008000130AA002A08FC0707307C02031C6A
:101892004B2C4C2C4F2CFC010314FC0D0A128A1504
:1018A200D4220A128A1544300A128A159B230A127C
:1018B2008A150C300A128A1589220A128A154D30AD
:1018C2000A128A11B6270A128A15831203137C0898
:1018D200303E0A128A15BC220A128A158312031399
:1018E2007C08303E0A128A1589220A128A1583124E
:1018F20003137C080A128A1573230A128A158312AB
:1019020003132B08F7002C08F800F901FA017708F5
:10191200AE01AE077808AF01AF070A128A11D821CB
:101922000A128A15831203137A08B1007908B000EB
:101932007808AF007708AE000A128A1185250A12CC
:101942008A1508000030D8000030D7000030D600D9
:101952000030D50053085204510450040319B22C2C
:10196200B32C012DD4010314D40DC42C0130D900A1
:101972000310D00DD10DD20DD30DD90BB92C0130DE
:10198200D9005908D407D31FC72CC82CB72C013053
:10199200D9000310D50DD60DD70DD80DD90BCA2CF1
:1019A20053084F02031DDF2C52084E02031DDF2C89
:1019B20051084D02031DDF2C50084C02031CE22C7F
:1019C200E32CF22C5008CC025108031C510FCD021B
:1019D2005208031C520FCE025308031C530FCF02AE
:1019E200551401300310D30CD20CD10CD00CFF3E95
:1019F200031DF32C0130D402031D002D012DC82C30
:101A02005808CF005708CE005608CD005508CC0024
:101A12000A2D08000130F707003003110318013EB8
:101A2200031DF807003003110318013E031DF907D7
:101A3200003003110318013E031DFA0700307A0239
:101A4200031D2D2D00307902031D2D2D0430780247
:101A5200031D2D2D38307702031C302D312D392DE9
:101A62000030FA000030F9000330F8006B30F70064
:101A72007708AE01AE077808AF01AF070A128A11E4
:101A8200D8210A128A150C300A128A1589220A12E2
:101A92008A1544300A128A11B6270A128A1583124D
:101AA20003137C08303E0A128A1589220A128A150B
:101AB200831203137A08B1007908B0007808AF00E6
:101AC2007708AE000A128A1185250A128A15831236
:101AD20003130030D3000030D2000530D100DC30D7
:101AE200D0000A128A15C6230A128A150800B70006
:101AF2000030BA00FF30BB000030BC000030BD0037
:101B02003308BA053408BB053508BC053608BD05DF
:101B120008300310BD0CBC0CBB0CBA0CFF3E031DFD
:101B22008A2D3A08B90033088313B80083160313C9
:101B320011149B2D11189E2D9F2D9B2D8312031383
:101B420037089300A42D831603131419A92DAA2D67
:101B5200A42D111FAD2DAE2DB52D1115B02D1119BE
:101B6200B32DB42DB02DFD2D831203133208930033
:101B7200BA2D831603131419BF2DC02DBA2D111FB0
:101B8200C32DC42DCB2D1115C62D1119C92DCA2D4A
:101B9200C62DFD2D8312031339089300D02D831611
:101BA20003131419D52DD62DD02D111FD92DDA2DB1
:101BB200E12D1115DC2D1119DF2DE02DDC2DFD2D70
:101BC2008312031338089300E62D831603131419A6
:101BD200EB2DEC2DE62D111FEF2DF02DF72D11150C
:101BE200F22D1119F52DF62DF22DFD2D1115F92DD0
:101BF2001119FC2DFD2DF92D08008312031300305D
:101C0200D3000030D2000030D1006430D0000A127C
:101C12008A15C6230A128A1583160313FE3031056C
:101C220083120313B300FF308316031332058312AA
:101C32000313B400B501B6010310003003180130DC
:101C4200B20020300A128A1578250A128A1501304C
:101C520083120313A4000030A5002F2E240883133F
:101C6200A6002607B13E84000008A70001308407C1
:101C72000008A8002708B3002808B400B501B6017F
:101C82002408B20020300A128A1578250A128A1511
:101C9200831203130130A4070318A50A0030A50715
:101CA2002508803AA60080302602031D5A2E1230E3
:101CB2002402031C5D2E5E2E2F2E83160313310881
:101CC20083120313B3008316031332088312031320
:101CD200B400B501B6010310003003180130B200A0
:101CE20020300A128A1578250A128A15992E133085
:101CF200B20020300A128A11F5220A128A158312C2
:101D020003133208F101F1073308F201F207203020
:101D1200F1050030F2050030D3000030D20000306F
:101D2200D1000A30D0000A128A15C6230A128A1577
:101D320083120313720871040319A02EA12E782EA8
:101D420008000310003003180130AB000D300A12F6
:101D52008A15F0220A128A15831203137B08AA003D
:101D62007B08303E0A128A15BC220A128A15831297
:101D720003137B08303E0A128A1589220A128A1539
:101D8200831203130030D3000030D2000030D100A0
:101D92000A30D0000A128A15C6230A128A153A2F6F
:101DA2008619D42ED52EFA2ED62E861DD92EDA2EAF
:101DB200D62E0130FB0202307B020318E12EE22E06
:101DC200E52EFB010314FB0D7B080A128A15482736
:101DD2000A128A15831203130030D3000030D20096
:101DE2000030D1006430D0000A128A15C6230A12CC
:101DF2008A15831203130619FF2E002F282F012F95
:101E0200061D042F052F012F0130AC002C08FB0703
:101E120009307B02031C0E2F0F2F132F0930AC0049
:101E22002C08FB007B080A128A1548270A128A1519
:101E3200831203130030D3000030D2000030D100EF
:101E42006430D0000A128A15C6230A128A15831238
:101E5200031306182D2F2E2F2F2F472F2A09AB00E1
:101E62007B08AC002C08AB057B092A05AC002C08CA
:101E7200AB0483120313AB08031D402FD12E08308D
:101E82000A128A1589220A128A15A22E08008312C2
:101E92000313AD002D088313AE002E08FB0083163A
:101EA2000313B314330883120313B300831603130B
:101EB200340883120313B400B501B601B20103144E
:101EC200B20D20300A128A1578250A128A15831259
:101ED20003132D088313D53E84000008AE00AF0122
:101EE200073084000310AE0DAF0D840B732F8316E1
:101EF20003137F30370583120313B000F8308316C3
:101F02000313380583120313B1002E08300483161D
:101F12000313B700831203132F083104831603132C
:101F2200B800370883120313B3008316031338086B
:101F320083120313B400B501B6010330B20020309E
:101F42000A128A1578250A128A15831203132D089C
:101F52008313DF3E84000008AE00AF010C30840022
:101F62000310AE0DAF0D840BB12F83160313FF3098
:101F72004D0583120313B0000F30831603134E0571
:101F820083120313B1002E08300483160313CD000D
:101F9200831203132F08310483160313CE004D0856
:101FA20083120313B300831603134E088312031321
:101FB200B400B501B6010E30B20020300A128A1503
:101FC20078250A128A1583160313FD30B305FF30F4
:101FD200B405330883120313B300831603133408C2
:101FE20083120313B400B501B601B2010314B20D9A
:0E1FF20020300A128A1578250A128A15080076
:02400E00323F3F
:00000001FF
