:060000000A128A153B2CD8
:100008007308720471047004031D0B280C280E2851
:10001800332833280130F4000030F5000030F600B2
:100028000030F7007408F0027508031C750F1D28CE
:100038001E28F1027608031C760F23282428F202D2
:100048007708031C770F29282A28F30273087204FB
:1000580071047004031D312832280E283328080043
:100068000030F3000030F2000030F1006430F0009E
:100078000A128A1104200A128A1103100030031888
:100088000130F000FE30831603132A05F100FF301B
:100098002B05F200F301F40120300A128A15CE264E
:1000A8000A128A11013083120313AD000030AE002A
:1000B8002E08803AFF0080307F02031D6528123029
:1000C8002D02031C682869286B289E289E28831205
:1000D80003132D08A9002908F0002D08AA002A07F3
:1000E800AA3E840083130008AB00840A0008AC0011
:1000F8002B08F1002C08F200F301F40120300A1259
:100108008A15CE260A128A11013083120313AD070D
:100118000318AE0A0030AE072E08803AFF00803080
:100128007F02031D992812302D02031C9C289D284C
:100138006B289E280310003003180130F000831646
:1001480003132A08F1002B08F200F301F401203010
:100158000A128A15CE260A128A11D8281330831259
:100168000313A9002908F00020300A128A11CE23AF
:100178000A128A11710883120313E601E607700850
:10018800E501E5072030E5050030E6050030F3001D
:100198000030F2000030F1000A30F0000A128A1133
:1001A80004200A128A11D8288312031366086504EA
:1001B8000319DF28E028B228E128080003100030DE
:1001C8000318013083120313A5000D300A128A1593
:1001D80073230A128A11831203136908A4002408DE
:1001E800A6006908303E0A128A1540230A128A11AD
:1001F800831203136908303E0A128A15D4220A12A0
:100208008A110030F3000030F2000030F1000A30AB
:10021800F0000A128A1104200A128A11812986190B
:10022800162917293E2919291929861D1C291D292E
:1002380019291E290130E90202306902031825290B
:1002480026292A29E9010314E90D2A2969080A122D
:100258008A1555270A128A110030F3000030F2007F
:100268000030F1006430F0000A128A1104200A12EA
:100278008A113E29831203130619432944296E293A
:1002880046294629061D49294A2946294B2901306C
:10029800A4002408E90709306902031C54295529D8
:1002A8005A290930A4002408E9005A2969080A12C1
:1002B8008A1555270A128A110030F3000030F2001F
:1002C8000030F1006430F0000A128A1104200A128A
:1002D8008A116E2983120313061873297429762943
:1002E8009029902926096905A4002408A500690910
:1002F8002605A4002408A5048129831203132508D0
:10030800031D87291329882908300A128A15D4223F
:100318000A128A11E228E2280800B2308312031375
:10032800A9020230031CAA03AA0283160313AC1401
:10033800F0010314F00D2C08F1002D08F200F30170
:10034800F40120300A128A15CE260A128A110030CA
:1003580083160313AE05FC30AF0502308312031376
:10036800AB002B08F000831603132E08F1002F08AA
:10037800F200F301F40120300A128A15CE260A127F
:100388008A11FF3083160313B005BF30B10503305F
:1003980083120313AB002B08F000831603133008F5
:1003A800F1003108F200F301F40120300A128A1535
:1003B800CE260A128A1183160313B116033083124C
:1003C8000313AB002B08F000831603133008F10069
:1003D8003108F200F301F40120300A128A15CE2602
:1003E8000A128A1183120313290883160313AE0411
:1003F800831203132A0883160313AF0402308312EF
:100408000313AB002B08F000831603132E08F1002A
:100418002F08F200F301F40120300A128A15CE26C3
:100428000A128A1183160313AF14023083120313BE
:10043800AB002B08F000831603132E08F1002F08D9
:10044800F200F301F40120300A128A15CE260A12AE
:100458008A11542A133083120313AB002B08F000BF
:1004680020300A128A11CE230A128A1171088312C7
:100478000313E601E6077008E501E5072030E50506
:100488000030E6050030F3000030F2000030F100E3
:100498000A30F0000A128A1104200A128A11542A1A
:1004A800831203136608650403195B2A5C2A2E2A43
:1004B8005D2AFD3083160313AC05FF30AD05F0014E
:1004C8000314F00D2C08F1002D08F200F301F401DB
:1004D80020300A128A15CE260A128A111330831286
:1004E8000313AB002B08F00020300A128A11CE2328
:1004F8000A128A11700883120313AC007108AD0048
:1005080007300310AD0CAC0CFF3E031D852AFF30ED
:100518002C05DD0001302D05DE00DF01E001B230E1
:10052800DD07023003180330DE07003003180130FE
:10053800DF07003003180130E00708000030F3003F
:100548000030F2001330F1008830F0000A128A11EE
:1005580004200A128A11FF308316031385000F3016
:100568008600880183120313850186018801013002
:100578000A128A1527230A128A1102300A128A15CA
:1005880027230A128A1106300A128A1527230A120B
:100598008A110C300A128A1527230A128A11383058
:1005A8000A128A1527230A128A110A128A15122397
:1005B8000A128A110A128A15E0220A128A110A12EC
:1005C8008A1134200A128A115E300A128A15102400
:1005D8000A128A1114300A128A1573230A128A1110
:1005E80008300A128A1510240A128A1101300A12D8
:1005F8008A1567240A128A1108300A128A155527A3
:100608000A128A110030F3000230F2004930F1007A
:10061800F030F0000A128A1104200A128A110A1214
:100628008A1559230A128A1127300A128A151024AA
:100638000A128A1127300A128A1567240A128A11A7
:1006480014300A128A1573230A128A1138300A12D2
:100658008A1510240A128A1138300A128A1567245A
:100668000A128A1183120313E7010314E70D0730F6
:100678006702031C402B412B432B882B882B6708D0
:100688000A128A15CE230A128A1183120313C8008C
:10069800C901CA01CB014B08E4004A08E300490834
:1006A800E2004808E10000306406031D652B0030B5
:1006B8006306031D652B00306206031D652BFF30A2
:1006C8006106031D682B692B7B2B6708563E840047
:1006D80083130008C800C9014808F0004908F10060
:1006E80067080A128A1590230A128A117B2B013097
:1006F80083120313C8004808E70707306702031C82
:10070800862B872B432B882B8312031306188D2BDC
:100718008E2BA02B902B902B061C932B942B902B7D
:10072800952B0A128A151E250A128A110A128A1195
:1007380016250A128A11A02B831203138618A52BDB
:10074800A62B882BA82BA82B861CAB2BAC2BA82B55
:10075800AD2B00300A128A1573230A128A1116303B
:100768000A128A1510240A128A1116300A128A15DA
:1007780067240A128A11013083120313E8020A124D
:100788008A11E2200A128A11882B882B882B0A12D8
:100798008A11002883120313A400031000300318E1
:1007A8000130A2000310003003180130A30000300C
:1007B800A0000030A100831603131114E32B1118B5
:1007C800E62BE72BE32BE82B831203132408930073
:1007D800ED2B831603131419F22BF32BED2B111F9A
:1007E800F62BF72B042C1115F92B1119FC2BFD2BCB
:1007F800F92BFE2B0030F0000030F100152D152DDF
:100808007008831203139300092C83160313141919
:100818000E2C0F2C092C111F122C132C202C111507
:10082800152C1119182C192C152C1A2C0030F00025
:100838000030F100152D152D9114222C9118252C1E
:10084800262C222C272C831203132408013893000A
:100858002D2C831603131419322C332C2D2C111F15
:10086800362C372C442C1115392C11193C2C3D2CC5
:10087800392C3E2C0030F0000030F100152D152DDC
:100888009115003083120313A8000030A700273009
:10089800A6001030A500842C0130F2000030F300CF
:1008A8000030F4000030F50072088312A5027308C6
:1008B800031C730F602C612CA6027408031C740FB0
:1008C800662C672CA7027508031C750F6C2C6D2C01
:1008D800A8022808270426042504031D742C752C57
:1008E800842C831603131115792C11197C2C7D2C5B
:1008F800792C7E2C0030F0000030F100152D152DDC
:1009080083160313141C892C8A2C502C8B2C8312CD
:1009180003131308F2007208A2008316031391123E
:100928001116962C111A992C9A2C962C9115003088
:1009380083120313A8000030A7002730A600103048
:10094800A500DA2C0130F2000030F3000030F4008A
:100958000030F50072088312A5027308031C730F98
:10096800B62CB72CA6027408031C740FBC2CBD2C23
:10097800A7027508031C750FC22CC32CA8022808EF
:10098800270426042504031DCA2CCB2CDA2C831635
:1009980003131115CF2C1119D22CD32CCF2CD42CF6
:1009A8000030F0000030F100152D152D83160313CB
:1009B800141CDF2CE02CA62CE12C83120313130843
:1009C800F2007208A3008316031391161116EC2C7B
:1009D800111AEF2CF02CEC2C1115F22C1119F52C06
:1009E800F62CF22CF72C831203132208F200F301E1
:1009F8000830FF000310F20DF30DFF0BFE2C7208F8
:100A0800A0007308A1002308F200F3017208A004F3
:100A18007308A1042108F101F1072008F001F0078B
:100A2800152D08008312031386191B2D1C2D5E2D0E
:100A38000030C2000030C300442D0130C207031843
:100A4800C30A0030C307023043028A300319420246
:100A5800031C2F2D302D362D0A128A1558260A12FE
:100A68008A11362D0030F3000030F2000030F1001A
:100A78006430F0000A128A1104200A128A11442DE7
:100A880083120313861D492D4A2D212D4B2D0A1241
:100A98008A1558260A128A110030F3000030F20035
:100AA8000330F100E830F0000A128A1104200A121B
:100AB8008A115E2D831203130619632D642DA62D4A
:100AC8000030C4000030C5008C2D0130C407031865
:100AD800C50A0030C507023045028A3003194402AE
:100AE800031C772D782D7E2D0A128A1582250A126D
:100AF8008A117E2D0030F3000030F2000030F10042
:100B08006430F0000A128A1104200A128A118C2D0E
:100B180083120313061D912D922D692D932D0A1210
:100B28008A1582250A128A110030F3000030F2007B
:100B38000330F100E830F0000A128A1104200A128A
:100B48008A11A62D831203130618AB2DAC2D3D2E4A
:100B58000030C6000030C700302E0130C607031829
:100B6800C70A0030C7070530470214300319460288
:100B7800031CBF2DC02D222E5E08F101F1075D0870
:100B8800F001F00768080A128A1590230A128A11E0
:100B98000A128A1559230A128A114D300A128A1527
:100BA80010240A128A114D300A128A1567240A1273
:100BB8008A11831203136808303E0A128A154023EB
:100BC8000A128A11831203136808303E0A128A1522
:100BD800D4220A128A1156300A128A1510240A12CF
:100BE8008A1156300A128A1567240A128A1183124A
:100BF80003136008A3005F08A2005E08A1005D0857
:100C0800A0000A128A1169260A128A110B2E831271
:100C18000313061C102E112E0B2E122E0130E80283
:100C28000030F3000030F2000730F100D030F0005F
:100C38000A128A1104200A128A11222E0030F300A7
:100C48000030F2000030F1006430F0000A128A111E
:100C580004200A128A11302E83120313061C352E23
:100C6800362EB12D372E0A128A151E250A128A1120
:100C78003D2E831203138618422E432E162D452E21
:100C8800452E861C482E492E452E4A2E00300A1223
:100C98008A1573230A128A1116300A128A1510242B
:100CA8000A128A1116300A128A1567240A128A1142
:100CB800013083120313E8020A128A11E2200A1291
:100CC8008A11162D162D162D0800303083120313A5
:100CD800A4000030A5000030A6000030A7000030B6
:100CE800F3000030F2000330F100E830F000230890
:100CF800F7002208F6002108F5002008F4000A127F
:100D08008A15EA250A128A11700883120313A407A8
:100D180071080318710F912E922EA50772080318F7
:100D2800720F972E982EA60773080318730AA70741
:100D38002708AB002608AA002508A9002408A8004F
:100D48000030F3000030F2000330F100E830F0002A
:100D58002308F7002208F6002108F5002008F4000F
:100D68000A128A15C2240A128A11730883120313FD
:100D7800A3007208A2007108A1007008A00030301A
:100D8800A4000030A5000030A6000030A700003005
:100D9800F3000030F2000030F1006430F000230866
:100DA800F7002208F6002108F5002008F4000A12CE
:100DB8008A15EA250A128A11700883120313A407F8
:100DC80071080318710FE92EEA2EA5077208031897
:100DD800720FEF2EF02EA60773080318730AA707E1
:100DE8002708AF002608AE002508AD002408AC008F
:100DF8000030F3000030F2000030F1006430F00001
:100E08002308F7002208F6002108F5002008F4005E
:100E18000A128A15C2240A128A117308831203134C
:100E2800A3007208A2007108A1007008A000303069
:100E3800A4000030A5000030A6000030A700003054
:100E4800F3000030F2000030F1000A30F00023080F
:100E5800F7002208F6002108F5002008F4000A121D
:100E68008A15EA250A128A11700883120313A40747
:100E780071080318710F412F422FA5077208031834
:100E8800720F472F482FA60773080318730AA7077E
:100E98002708B3002608B2002508B1002408B000CE
:100EA8000030B7000030B6000030B5002E30B40076
:100EB8003030A4000030A5000030A6000030A700A4
:100EC8000030F3000030F2000030F1000A30F0008A
:100ED8002308F7002208F6002108F5002008F4008E
:100EE8000A128A15C2240A128A117008831203137F
:100EF800A40771080318710F822F832FA5077208A2
:100F08000318720F882F892FA60773080318730A0E
:100F1800A7072708BB002608BA002508B900240837
:100F2800B80014300A128A1573230A128A11653020
:100F38000A128A1510240A128A1165300A128A15B3
:100F480067240A128A11003083120313BC00003090
:100F5800BD0000303D02053003193C02031CB52FCB
:100F6800B62FB82FF22FF22F3C08A400013003103F
:100F7800A40DFF3E031DBB2F0310240D283E840043
:100F8800831300080A128A1540230A128A11831251
:100F980003133C08A40001300310A40DFF3E031DF9
:100FA800D02F0310240D283E8400831300080A1252
:100FB8008A15D4220A128A11013083120313BC073E
:100FC8000318BD0A0030BD0700303D020530031983
:100FD8003C02031CF02FF12FB82FF22F0030F30042
:100FE8000030F2000330F100E830F0000A128A11F4
:100FF80004200A128A11080008308A000408840AAA
:1010080082070034503452343334313420343D3480
:1010180020344434693467346934743461346C344A
:10102800203452346134643469346F340034763493
:101038006F346C3475346D34653420346C346534F5
:10104800763465346C343D34203420342034003414
:101058007334773431343D346334683461346E34F6
:1010680020347334773432343D3476346F346C340E
:1010780000347334773431342834313473342934B8
:101088003D34733465347434003443346834613423
:101098006E346E3465346C34203400346334683410
:1010A80061346E346E3465346C342034003420344A
:1010B80073346534743474346534643400345034AF
:1010C80052343334313420343A34003446344D34D5
:0410D8003D3400346F
:1015A800F000D62A831203130C1EDB2ADC2AD62A63
:1015B800DD2A70089900080083160313871507169B
:1015C8000C30930083120313941514119410141003
:1015D80094131413941608007E088A007F0882006A
:1015E800F0220A128A158000840A04087D0603196D
:1015F8000034FF0A0319FE0AF42A00340F340D34AC
:101608000E340F340E340F340F340F340F34383493
:101618008434B234C834EE341534353483160313A5
:10162800181581309900831203139817181683161A
:1016380003139816071387170C300A128A15D42239
:101648000A128A150800F800831203130612780894
:1016580088000030F3000030F2000130F1002C3037
:10166800F0000A128A1104200A128A150A128A1531
:10167800EF230A128A150800F800831203130616CE
:10168800780888000030F3000030F2000130F100E3
:101698002C30F0000A128A1104200A128A150A1244
:1016A8008A15EF230A128A15080001300A128A15D2
:1016B80027230A128A1502300A128A1527230A12CA
:1016C8008A150030F3000030F2000130F1005E307E
:1016D800F0000A128A1104200A128A150800FA007A
:1016E80010307A020318792B7A2B822B7A08803EE5
:1016F8000A128A1527230A128A158F2B7A08EC3EBC
:10170800F9007908FA007A08C03E0A128A152723D8
:101718000A128A158F2B0800F20072088312031729
:101728008D003930F0020330031CF103F102700818
:101738008C00831603178C130C1555308D00AA30B6
:101748008D008C140C11A82B8C18AB2BAC2BA82B50
:10175800AD2B0800F4007408831203178D0083165C
:1017680003178C130C14B82B0C18BB2BBC2BB82BE1
:10177800BD2B831203170C08393EF20003300318FF
:101788000430F3007308F101F1077208F001F00763
:10179800CD2B0800F3006400831603178C18D52B93
:1017A800D62BCF2BD72B7308831203178D003F300E
:1017B800F0007008831603178C050C1403100C181E
:1017C8000314003003180130F100F20183120317EB
:1017D8000C08EE2B08008312031386160030F30062
:1017E8000030F2000130F1002C30F0000A128A11AA
:1017F80004200A128A158312031386120030F3009C
:101808000030F2000130F1002C30F0000A128A1189
:1018180004200A128A150800FB0003100030031880
:101828000130FA00282C7B0884000A128A1500204F
:101838000A128A150A128A1540230A128A150130DB
:10184800F9007908FB07282C7B08031D2C2C3A2C5F
:101858007B0884000A128A1500200A128A150038AB
:10186800031D372C382C172C3A2C3A2C0800DD0194
:10187800DE01DF01E001E101E201E301E401E5014C
:10188800E601E701E801E9018313CE30FD000C30E1
:10189800FE009430FF00A03084000A128A15F4225A
:1018A8000A128A155D30FD000B30FE000130FF0082
:1018B8004C3084000A128A15F4220A128A15830110
:1018C8000A128A11A22AF2000A300A128A15D422B0
:1018D8000A128A150D300A128A15D4220A128A159C
:1018E800862C720884000A128A1500200A128A15AA
:1018F8000A128A15D4220A128A150130F1007108D9
:10190800F207862C720884000A128A1500200A122F
:101918008A150038031D912C922C752C932C0800E5
:1019280000340734063406340634033403340234EE
:1019380001340034FF34FF3415345B34B934F434E3
:101948001234803400340434AA3428340034443443
:10195800E7341E34413471347D340034C634823463
:1019680055344F340C3497344534B8342D34FC3462
:1019780097348034A13404346A34DF347308720431
:10198800710470040319C92CCA2C142DF90103140D
:10199800F90DDC2C0130F8000310F00DF10DF20DFB
:1019A800F30DF80BD02C0130F8007808F907DC2C7F
:1019B800F31FDF2CE02CCE2CE22CE22C73087702EC
:1019C800031DF02C72087602031DF02C71087502B5
:1019D800031DF02C70087402031CF32CF42C032D47
:1019E8007008F4027108031C710FF5027208031CD9
:1019F800720FF6027308031C730FF702032D0130F0
:101A08000310F30CF20CF10CF00CFF3E031D042D37
:101A18000130F902031D112D122DE22C142D142D65
:101A28007708F3007608F2007508F1007408F000F2
:101A38001D2D0800013083120313BE003E08E8077D
:101A480007306802031C292D2A2D2E2DE8010314C6
:101A5800E80D2E2D0A128A1559230A128A154D30BF
:101A68000A128A1510240A128A150C300A128A15CD
:101A7800D4220A128A1544300A128A1567240A12D7
:101A88008A15831203136808303E0A128A15402308
:101A98000A128A15831203136808303E0A128A153F
:101AA800D4220A128A158312031368080A128A15A7
:101AB800AE230A128A15700883120313DD00710819
:101AC800DE00DF01E0015E08AA01AA075D08A9019E
:101AD800A9070A128A1191210A128A15831203137F
:101AE8006008A3005F08A2005E08A1005D08A000CE
:101AF8000A128A1169260A128A150800013083120F
:101B08000313DD07003003180130DE070030031827
:101B18000130DF07003003180130E00700306002B1
:101B2800031DA02D00305F02031DA02D04305E02AE
:101B3800031DA02D38305D02031CA32DA42DAD2D4F
:101B48000030E0000030DF000330DE006B30DD00E5
:101B5800AD2D5E08AA01AA075D08A901A9070A1206
:101B68008A1191210A128A150C300A128A15D42278
:101B78000A128A154D300A128A1567240A128A1524
:101B8800831203136808303E0A128A15D4220A12F7
:101B98008A15831203136008A3005F08A2005E0879
:101BA800A1005D08A0000A128A1169260A128A1586
:101BB8000030F3000030F2000530F100DC30F000B6
:101BC8000A128A1104200A128A1508000030FC0043
:101BD8000030FB000030FA000030F900730872048E
:101BE800710470040319F92DFA2D4E2EFD0103140A
:101BF800FD0D0C2E0130F8000310F00DF10DF20D63
:101C0800F30DF80B002E0130F8007808FD070C2EB4
:101C1800F31F0F2E102EFE2D122E122E0130F8005B
:101C28000310F90DFA0DFB0DFC0DF80B142E7308BB
:101C38007702031D292E72087602031D292E7108CA
:101C48007502031D292E70087402031C2C2E2D2EDC
:101C58003D2E7008F4027108031C710FF50272081A
:101C6800031C720FF6027308031C730FF702791432
:101C78003D2E01300310F30CF20CF10CF00CFF3E7A
:101C8800031D3E2E0130FD02031D4B2E4C2E122E3D
:101C98004E2E4E2E7C08F3007B08F2007A08F100E5
:101CA8007908F000572E0800013083120313BE0094
:101CB8000030BF000030C0000030C1003E08DD0227
:101CC8003F08031C3F0F692E6A2EDE024008031CE2
:101CD800400F6F2E702EDF024108031C410F752E36
:101CE800762EE00200306002031D842E00305F0271
:101CF800031D842E03305E02031D842E6C305D02AA
:101D08000318872E882E912E0030E0000030DF0067
:101D18000430DE003830DD00912E5E08AA01AA07E3
:101D28005D08A901A9070A128A1191210A128A15C8
:101D38000C300A128A15D4220A128A154D300A125A
:101D48008A1567240A128A15831203136808303E1D
:101D58000A128A15D4220A128A15831203136008FC
:101D6800A3005F08A2005E08A1005D08A0000A1297
:101D78008A1169260A128A150030F3000030F20031
:101D88000530F100DC30F0000A128A1104200A1232
:101D98008A150800FA007108F5007208F600730841
:101DA800F7007408F80008300310F80CF70CF60C6C
:101DB800F50CFF3E031DD82E7508F9007908FB00C5
:101DC8007108F5007508FC00831603131114EC2E36
:101DD8001118EF2EF02EEC2EF12E7A088312031331
:101DE8009300F62E831603131419FB2EFC2EF62EE1
:101DF800111FFF2E002F082F1115022F1119052F63
:101E0800062F022F542F542F7008831203139300A8
:101E18000D2F831603131419122F132F0D2F111FB3
:101E2800162F172F1F2F1115192F11191C2F1D2FA2
:101E3800192F542F542F7B08831203139300242F38
:101E4800831603131419292F2A2F242F111F2D2F1E
:101E58002E2F362F1115302F1119332F342F302FE5
:101E6800542F542F7C088312031393003B2F83169F
:101E780003131419402F412F3B2F111F442F452FB7
:101E88004D2F1115472F11194A2F4B2F472F542F1C
:101E9800542F11154F2F1119522F532F4F2F542FE5
:101EA8000800FD007D0883120313A0002008E90044
:101EB80083160313AC14F0010314F00D2C08F10081
:101EC8002D08F200F301F40120300A128A15CE26FB
:101ED8000A128A157D08A03E840083130008831225
:101EE8000313A000A1010730FF000310A00DA10DEE
:101EF800FF0B792F7F3083160313300583120313EA
:101F0800A200F83083160313310583120313A300CC
:101F18002008220483160313B00083120313210838
:101F2800230483160313B100033083120313A000A4
:101F38002008F000831603133008F1003108F2007E
:101F4800F301F40120300A128A15CE260A128A15E6
:101F58007D084C3E84008313000883120313A000FD
:101F6800A1010C30FF000310A00DA10DFF0BB72F2E
:101F7800FF3083160313460583120313A2000F30A4
:101F880083160313470583120313A30020082204B2
:101F980083160313C6008312031321082304831630
:101FA8000313C7000E3083120313A0002008F000AB
:101FB800831603134608F1004708F200F301F40101
:101FC80020300A128A15CE260A128A15FD30831689
:101FD8000313AC05FF30AD05F0010314F00D2C0818
:101FE800F1002D08F200F301F40120300A128A15DD
:081FF800CE260A128A1508002A
:02400E00323F3F
:00000001FF
